S00C0000546573742E7372656378
S11300000C943E000C945B000C945B000C94A301D4
S11300100C94B5010C945B000C945B000C945B0095
S11300200C945B000C945B000C945B000C945B00E0
S11300300C945B000C9440010C945B000C945B00EA
S11300400C94C8000C945B000C945B000C945B0053
S11300500C945B000C945B000C945B000C945B00B0
S11300600C945B000C945B00660069006C006F00EC
S11300707200750078007B007E00810011241FBE91
S1130080CFEFD8E0DEBFCDBF11E0A0E0B1E0E2E306
S1130090F4E002C005900D92A830B107D9F721E031
S11300A0A8E0B1E001C01D92AE30B207E1F70E94B2
S11300B0E3010C9417020C94000090E08A3091053F
S11300C018F5FC01EC5CFF4F0C9411028FE38BB923
S11300D0089586E08BB908958BE58BB908958FE474
S11300E08BB9089586E68BB908958DE68BB908958A
S11300F08DE78BB9089587E08BB908958FE78BB9A5
S113010008958FE68BB908951BB80895F8948FEF7E
S113011084B987B98AB984B18F7E84B987B18C7F59
S113012087B985B1806185B988B1836088B9E8E60B
S1130130F0E0808183608083EBE6F0E08081806181
S11301408083ECE6F0E080818360808389EC8BB966
S1130150E1E6F0E080E8808384E0808385B5836015
S113016085BD84E686BD81E080936E00E1E8F0E021
S113017080818360808387EF92EC909385008093E5
S11301808400EFE6F0E080818160808378940895B4
S11301901F920F920FB60F9211248F939F9384E6B0
S11301A086BD83B180718093040186B18170809390
S11301B0030186B182708093020180910C01813029
S11301C009F057C090910A0180910301981326C049
S11301D080910301811122C0809101018130F1F4E9
S11301E085B1982F907F80910701892B85B98091E3
S11301F00701883071F485B18F6085B910920C01C4
S113020086E08BB985B18F6085B988B1837C88B964
S113021003C0880F80930701109201019091090196
S113022080910201981325C080910201811121C09F
S1130230809100018130E9F488B1837C90910601BA
S1130240892B88B980910601843071F488B18C635C
S113025088B910920C018BE58BB988B18C6388B98D
S113026085B1807F85B903C086958093060110927D
S113027000019F918F910F900FBE0F901F901895C2
S11302801F920F920FB60F9211242F933F934F9307
S11302905F936F937F938F939F93AF93BF93EF93EA
S11302A0FF9387EF92EC9093850080938400809174
S11302B00D018330D1F028F4813049F0823071F09F
S11302C031C0853001F1C0F0863021F12BC08F5F41
S11302D080930D0185E00E945D0024C08F5F8093B0
S11302E00D0184E00E945D001DC08F5F80930D01AD
S11302F083E00E945D0016C08F5F80930D0182E051
S11303000E945D000FC08F5F80930D0181E00E9409
S11303105D0008C010920D0180E00E945D0081E044
S113032080930C01FF91EF91BF91AF919F918F91B9
S11303307F916F915F914F913F912F910F900FBEDD
S11303400F901F9018951F920F920FB60F921124C1
S11303508F931C9904C083B1807180930B018F919A
S11303600F900FBE0F901F9018951F920F920FB60B
S11303700F9211248F9380910C018130F1F4309904
S113038004C086B1817080930A01319904C086B19A
S1130390827080930901309907C080910101811115
S11303A003C081E080930101319907C0809100016D
S11303B0811103C081E0809300018F910F900FBEE3
S11303C00F901F9018950E94860090910B018091C8
S11303D004019813FACF809104018111F6CF81E0D2
S11303E080930D0110920C018093070190E2909389
S11303F0060190E19093050180930101809300012F
S11304001092090110920A01809302018093030162
S11304101092080185B1807F85B988B1837C88B941
S1130420D4CFEE0FFF1F0590F491E02D0994F894BA
S1050430FFCFF8
S10B0432010101010110200188
S9030000FC
